:1000000045C0000062C0000060C000005EC000008B
:100010005CC000005AC0000058C000000C947E0A6A
:1000200054C0000052C0000050C000004EC000008C
:100030004CC000000C947E0848C0000046C0000080
:1000400044C0000042C0000040C000003EC00000AC
:100050003CC000003AC0000038C0000036C00000BC
:1000600034C0000032C0000030C000002EC00000CC
:100070002CC000002AC000000C94CF0A26C000004B
:1000800024C0000022C0000020C0000011241FBEB8
:10009000CFEFD0E1DEBFCDBF11E0A0E0B1E0E8E4FA
:1000A000F6E100E00BBF02C007900D92A635B10744
:1000B000D9F727E0A6E5B1E001C01D92A53BB20744
:1000C000E1F70E9487090C94220B9ACF88E1809374
:1000D0009A0086E080939D001092980087E68093B6
:1000E00099000895811103C05F990EC00895809111
:1000F0009B00882364F4ACE9B0E0EBE9F0E08C917C
:1001000080818823E4F308958CB15F99FDCF089531
:10011000EF92FF920F931F93CF93DF93EC0146175B
:10012000570708F43FC0FB013196E80FF91F80E044
:1001300090E0DC017E01E40EF51E6417750751F4B2
:10014000E701288130E0322F2227820F931FA11D63
:10015000B11D0CC0EF012197288130E0322F2227FA
:100160001081212B820F931FA11DB11D0097D1E09B
:10017000AD07B10580F08C019D0122273327CD0109
:10018000AA27BB27800F911FA21FB31F009721E052
:10019000A207B10580F76E5F7F4F3296461757076B
:1001A00060F603C080E090E0DC0180959095DF91DF
:1001B000CF911F910F91FF90EF90089587B38760C3
:1001C00087BB80E58DB90895C09AEFE9FFE03197CC
:1001D000F1F700C00000C0988FB9779BFECFC09A9E
:1001E0000895C09AEFE9FFE03197F1F700C00000F1
:1001F000C0988FB9779BFECF6FB9779BFECFC09A1F
:1002000008958FB9779BFECF08958FEF8FB9779BB5
:10021000FECF8FB10895C09AEFE9FFE03197F1F773
:1002200000C00000C0988FB9779BFECF8FEF8FB9C9
:10023000779BFECF8FB1C09A08951F93CF93DF9322
:10024000182FC62FD42F62E08FE5CBDF612F84E516
:10025000C8DF6D2F86E5C5DF6C2F87E5C2DF8AE337
:100260008A95F1F700C063E08FE5BBDF8AE0D3DF5A
:1002700080FF04C08AE0CFDF80FDFCCFDF91CF910B
:100280001F910895CF93DF938FEF9EDF8FE99FE05B
:100290000197F1F700C000008DE1BDDF80FD04C0D3
:1002A0008DE1B9DF80FFFCCF60E08FE59ADF10922F
:1002B000B4071092B30760E088E493DF60E089E45C
:1002C00090DF60E78AE48DDF67E18BE48ADF6FE629
:1002D0008CE487DF67E18DE484DF61E08FE581DF17
:1002E00061E888E57EDF8DE196DF80FD04C08DE169
:1002F00092DF80FFFCCF62E08FE573DF6DE080E48A
:1003000070DF63E382E46DDF6EEE8AE46ADF65E04E
:100310008BE467DF65E184E464DF62E186E461DF4A
:1003200063E08FE55EDFC5E1D1E0688184E459DFF9
:10033000698185E456DF6A8182E453DF6B8183E45F
:1003400050DF6C8180E44DDF6D8181E44ADF60E83D
:100350008EE547DF60EC8BE544DF40E061E080E064
:100360006CDF46E765E184E168DF64E08FE539DF53
:10037000DF91CF910895AF92BF92CF92DF92EF922B
:10038000FF920F931F93CF93DF937C0164E08FE57F
:1003900028DF6091B307A090B40780E1A89E5001C8
:1003A0001124A62A80E41DDF6091B40781E419DFDF
:1003B000C09A8FE99FE00197F1F700C00000C09854
:1003C0008AE31FDF22DF8093B3071FDF8093B40728
:1003D00090E1899F600111248091B307C82A15DF3D
:1003E000082F13DF10E0102F0027082B10270127FC
:1003F00010270450110909DF08DF053F81E01807C5
:1004000010F004EF11E00115110541F0E701E00ED5
:10041000F11EFBDE8993CE15DF05D9F7C09ACA1409
:10042000DB0410F42FDF0AC06091B30761508CE445
:10043000D8DE6091B40761508DE4D3DE60EC8EE5C8
:10044000D0DEC801DF91CF911F910F91FF90EF9007
:10045000DF90CF90BF90AF900895BF92CF92DF9280
:10046000EF92FF920F931F93CF93DF938C017B0149
:10047000B42E64E08FE5B5DE61E784E4B2DE67E1C7
:1004800085E4AFDE61E782E4ACDE67E183E4A9DE08
:10049000C0988AE7B6DE80E0B4DECFE0D1E00F2E70
:1004A000F5E1CF2EF1E0DF2EF02D8991AADECC15FB
:1004B000DD05D9F7C5E1D1E00F2EFBE1CF2EF1E04C
:1004C000DF2EF02D89919DDECC15DD05D9F789E46D
:1004D000B81208C088E095DE80E093DEE114F104F4
:1004E00049F410C081E4B812F9CF88E08ADE86E0D2
:1004F00088DEF4CFE8010E0D1F1D899182DEC01742
:10050000D107D9F781E8E81A88EEF80A6E2D86E45B
:1005100068DE6F2D87E465DE60E08CE562DE68E80A
:100520008BE55FDE6CE18FE55CDE8FE174DE83FFDF
:1005300004C08FE170DE83FDFCCF8DE16CDE86951B
:10054000817091E08927DF91CF911F910F91FF90EA
:10055000EF90DF90CF90BF90089565E08FE541DE8A
:1005600089E159CE08952F923F924F925F926F92F8
:100570007F928F929F92AF92BF92CF92DF92EF9233
:10058000FF920F931F93CF93DF93CDB7DEB7C55381
:10059000D8400FB6F894DEBF0FBECDBF282ECB5C7F
:1005A000D74F9883C553D8406B01442E322E85E433
:1005B000C352DA4F8883CD5DD540C252DA4F1882DC
:1005C000CE5DD5407B0188E2E80EF11CC152DA4FC6
:1005D000F882CF5DD54088E2860FC052DA4F88831B
:1005E000C05ED5408AE1CF51DA4F8883C15ED540E5
:1005F00080E3CE51DA4F8883C25ED540CD51DA4FC9
:100600001882C35ED540CC51DA4F1882C45ED54003
:1006100080E8CB51DA4F8883C55ED54086E0CA5169
:10062000DA4F8883C65ED540C951DA4F1882C75E5B
:10063000D540C851DA4F1882C85ED540E7E0F1E0F6
:100640005080C751DA4F5882C95ED5406180C6518B
:10065000DA4F6882CA5ED5407280C551DA4F78821F
:10066000CB5ED5408380C451DA4F8882CC5ED540C2
:10067000EBE0F1E09080C351DA4F9882CD5ED54037
:10068000A180C251DA4FA882CE5ED540B280C1515E
:10069000DA4FB882CF5ED5401381C051DA4F18834C
:1006A000C05FD54043E150E060E070E0CE0183528E
:1006B0009A4F2EDDC951DA4F9883C75ED540C85195
:1006C000DA4F8883C85ED5408091B207CF50DA4FA9
:1006D0008883C15FD54080910601CE50DA4F888370
:1006E000C25FD5408091040190910501CD50DA4F51
:1006F0009883C35FD540CC50DA4F8883C45FD54020
:10070000809100019091010120910201309103013B
:10071000CB50DA4F3883C55FD540CA50DA4F2883B3
:10072000C65FD540C950DA4F9883C75FD540C850DF
:10073000DA4F8883C85FD5408091AE079091AF07AC
:100740002091B0073091B107C750DA4F3883C95FA5
:10075000D540C650DA4F2883CA5FD540C550DA4F1E
:100760009883CB5FD540C450DA4F8883CC5FD540A7
:1007700080E5C350DA4F8883CD5FD540011106C0B4
:10078000C250DA4F1882CE5FD54006C088E0C25012
:10079000DA4F8883CE5FD540442059F0C250DA4FFB
:1007A0008881CE5FD5408260C250DA4F8883CE5FA9
:1007B000D540332059F0C250DA4F8881CE5FD54002
:1007C0008061C250DA4F8883CE5FD54085E0C1504A
:1007D000DA4F8883CF5FD5408CEDC050DA4F8883E5
:1007E000C050D640CF5FD94F1882C150D640CE5F9F
:1007F000D94F1882C250D640CD5FD94F1882C3500E
:10080000D640CC5FD94F1882C450D6401C141D046A
:10081000CCF4A22DCB5CD74FB881C553D840EDEDB9
:10082000F5E0EC0FFD1FB8969601285D3F4F8DED6A
:1008300095E08C0F9D1F280F391F8D918193E21732
:10084000F307D9F759826A827B828C829D82AE82BD
:10085000BF821887198686E08A87C60144969B87DF
:1008600024E12C0D2C87892BA9F0EDEDF5E0EC0FA0
:10087000FD1F7496DE011D969601285D3F4F8DED9C
:1008800095E08C0F9D1F280F391F81918D93E217E2
:10089000F307D9F7A601415E5F4F60E070E0CE013B
:1008A000019636DCCF5FD94F9883C150D640CE5FDA
:1008B000D94F8883C250D64049E4B701CE01835254
:1008C0009A4FCBDD8823C1F3332041F041100BC098
:1008D00001110EC09CC010924F0599C00F2EFAE076
:1008E000BF2EF02D09C00F2EFAE0BF2EF02D04C050
:1008F0000F2EFAE0BF2EF02D07E011E0EFE3FFE14D
:100900003197F1F700C0000076C082E595E033DD55
:10091000909351058093500580915E05883009F0D1
:100920006AC080915F05811166C08091690586303B
:1009300009F061C090917005F801808198135BC047
:10094000909171058181981356C0909172058281B2
:10095000981351C090917305838198134CC0809176
:10096000810584FF48C091E080FF90E0911106C0AE
:1009700091E082FF90E0992309F449C0E2E5F5E0B7
:1009800081A590E0A0E0B0E0AC01BD014F5F5F4FFA
:100990006F4F7F4F86A190E0A0E0B0E0BA2FA92F63
:1009A000982F882727A1820F911DA11DB11DBA2F55
:1009B000A92F982F882720A5820F911DA11DB11D59
:1009C000BA2FA92F982F8827840F951FA61FB71F0E
:1009D0008093AE079093AF07A093B007B093B10791
:1009E00000E021E040E060E070E086E291E0BBDD05
:1009F00010924F050CC0B1DD811187CF49E4B701DA
:100A0000CE0183529A4F29DD8823C1F319C0C60154
:100A1000DD0CAA0BBB0BC0900001D0900101E0904F
:100A20000201F0900301C80ED91EEA1EFB1EC092FF
:100A30000001D0920101E0920201F092030104C092
:100A4000BA94B1105BCF47CFCB5CD74F0FB6F894B9
:100A5000DEBF0FBECDBFDF91CF911F910F91FF90F1
:100A6000EF90DF90CF90BF90AF909F908F907F904E
:100A70006F905F904F903F902F900895CF92DF92AC
:100A8000EF92FF920F93CF93DF93623371050CF4D3
:100A900089C1FC012485283009F087C125852111F1
:100AA00087C12789263009F086C1368D209107013C
:100AB000321384C1378D20910801321382C130A1D5
:100AC00020910901321380C131A120910A01321312
:100AD0007EC1B089C18936A5268547A550914F05AD
:100AE000A1E041FFA0E0FC015A1708F073C081A506
:100AF00090E0A0E0B0E0AC01BD014F5F5F4F6F4FF1
:100B00007F4F86A190E0A0E0B0E0BA2FA92F982FE8
:100B1000882727A1820F911DA11DB11DBA2FA92FD2
:100B2000982F882720A5820F911DA11DB11DBA2FD6
:100B3000A92F982F8827840F951FA61FB71F809372
:100B4000AE079093AF07A093B007B093B107DF0152
:100B50005A96CBE0D1E09F01225E3F4F8D91899361
:100B6000A217B307D9F7DF011696CFE0D1E09F01B6
:100B7000245F3F4F8D918993A217B307D9F782A1C4
:100B800090E0982F882723A1822B909305018093D2
:100B9000040100E021E041E060E070E086E291E0E5
:100BA000E2DC8091000190910101A0910201B091DD
:100BB00003010196A11DB11D8093000190930101D5
:100BC000A0930201B093030181E080934F0580E080
:100BD00090E002C181E040FF80E0811106C081E029
:100BE00042FF80E0882309F45DC081A590E0A0E089
:100BF000B0E0AC01BD014F5F5F4F6F4F7F4F86A1EB
:100C000090E0A0E0B0E0BA2FA92F982F882727A165
:100C1000820F911DA11DB11DBA2FA92F982F8827D2
:100C200020A5820F911DA11DB11DBA2FA92F982FAC
:100C30008827840F951FA61FB71F8093AE07909338
:100C4000AF07A093B007B093B10700E021E040E008
:100C500060E070E086E291E086DC8AEA90E3A0E062
:100C6000B0E08093000190930101A0930201B09342
:100C700003011092AA071092AB071092AC071092D2
:100C8000AD071092AE071092AF071092B007109206
:100C9000B107109251051092500510924F0580E057
:100CA00090E09AC0D0E0DB2B832F82958F7094E088
:100CB000899FC019D1091124822F8F7094E0899FD8
:100CC000C019D109112421E0209709F420E0222342
:100CD00009F480C0552309F47DC086A190E0A0E00E
:100CE000B0E0BA2FA92F982F882737A1830F911D25
:100CF000A11DB11DBA2FA92F982F882730A5830FCA
:100D0000911DA11DB11DBA2FA92F982F882731A59C
:100D1000830F911DA11DB11DC090AA07D090AB07F4
:100D2000E090AC07F090AD07C816D906EA06FB06BE
:100D300060F5C090AE07D090AF07E090B007F0909C
:100D4000B107CC0EDD1EE11CF11CC092AE07D092A3
:100D5000AF07E092B007F092B1078093AA07909393
:100D6000AB07A093AC07B093AD07222381F06C1BB7
:100D70007D0BDF01A60FB71F80E090E02D9121933E
:100D800001968C179D07D0F302C0C0E0D0E000E0D0
:100D900021E040E060E070E086E291E0E4DB8C2F4F
:100DA0009D2F1AC080E090E017C080E090E014C052
:100DB00080E090E011C080E090E00EC080E090E024
:100DC0000BC080E090E008C080E090E005C080E0CB
:100DD00090E002C080E090E0DF91CF910F91FF9012
:100DE000EF90DF90CF900895CF93DF93CDB7DEB72C
:100DF0006D970FB6F894DEBF0FBECDBFFB019E010D
:100E00002F5F3F4F4DE1D9011D924A95E9F741E02F
:100E10004A8348E04B8346E04D8344E04E8342E002
:100E20004887A5E1B1E04C91498711964C91119703
:100E30004A8712964C9112974B8713964C911397B1
:100E40004C8714964C9114974D8715964C914E876C
:100E5000A7E0B1E04C914F8711964C911197488BC8
:100E600012964C911297498B13964C914A8B408164
:100E70004B8B41814C8B42814D8B43814E8B448106
:100E80004F8B4581488FFC014081498F41814A8FBA
:100E900042814B8F83818C8F41E46DE170E0C90109
:100EA000DCDA6D960FB6F894DEBF0FBECDBFDF91D2
:100EB000CF910895FC018485883009F048C085856C
:100EC000863009F044C08685811141C096A1809189
:100ED000070198133CC097A180910801981337C06F
:100EE00090A580910901981332C091A580910A01C3
:100EF00098132DC0A5E4B5E086818C938781119667
:100F00008C931197808512968C93129781851396F6
:100F10008C931397828514968C93149783851596DA
:100F20008C93ABE4B5E0848D8C93858D11968C9376
:100F30001197868D12968C931297878D13968C93AA
:100F4000139765E475E0CD014FDF8EE4089580814D
:100F50008F3F11F08FE408958EE40895CF93DF93CF
:100F6000FC016A327105C4F184858830C1F585853C
:100F7000811138C087898131C1F5968D8091070133
:100F8000981336C0978D80910801981334C090A1B2
:100F900080910901981332C091A180910A019813A0
:100FA00030C084A1811130C085A1843681F586A12D
:100FB00090E0982F882727A1822B089716161706EE
:100FC00044F5EF01AA96DF016E0F7F1F29912D9343
:100FD000A617B707D9F71DC080E090E01AC080E0DF
:100FE00090E017C080E090E014C080E090E011C075
:100FF00080E090E00EC080E090E00BC080E090E0E8
:1010000008C080E090E005C080E090E002C080E091
:1010100090E0DF91CF9108950F931F93CF93DF93CB
:10102000CDB7DEB7C054D6400FB6F894DEBF0FBEC2
:10103000CDBF8B01045E1F4FAB01485F5F4F611551
:10104000710579F0A82FB92FFE017D9621E030E0DF
:101050002C0F3D1F200F311F8D918193E217F30755
:10106000D9F7FE01E60FF71F158E85E489831A82F2
:101070001B830C838AE18D8380E38E831F82188615
:1010800090E8998791E19A871B861C86E7E0F1E05A
:1010900090819D8791819E8792819F879381988B74
:1010A000EBE0F1E09081998B91819A8B92819B8BFF
:1010B00093819C8B96EF9D8B8E8B1F8A84E6888F05
:1010C000598F4A8F1B8E1C8E43E150E060E070E028
:1010D000CE0101961DD89B878C8749E4B801CE01CB
:1010E0000196BBD9C05CD94F0FB6F894DEBF0FBED6
:1010F000CDBFDF91CF911F910F9108951F920F9255
:101100000FB60F9211240BB60F920F932F933F93AC
:101110004F935F936F937F938F939F93AF93BF93FF
:10112000EF93FF938BB380588BBB60915701709105
:10113000580181E06115710509F480E0882371F0A0
:1011400080914F05882351F001E021E040E08DE5DA
:1011500091E009DA1092580110925701FF91EF9136
:10116000BF91AF919F918F917F916F915F914F91BF
:101170003F912F910F910F900BBE0F900FBE0F90CC
:101180001F9018950F931F93CF93DF9390915E015B
:10119000903181F5AF98882391F080E180939C0095
:1011A000EBE9F0E0808185FFFDCF2FEF89EF90E044
:1011B000215080409040E1F700C0000084C04AE028
:1011C00050E06BE070E08BE191E026DF7CC0819124
:1011D0008D93E217F307D9F7C0E0D0E0F8016191F1
:1011E0008F01CE0122D22196C630D105B9F74AD857
:1011F000AF9A88C0903241F5AF98882391F080E291
:1012000080939C00EBE9F0E0808185FFFDCFFFEF4C
:1012100029EF80E0F15020408040E1F700C000005D
:101220005AC04AE050E06AE070E087E291E0F4DE04
:1012300052C0F80161918F01CE01F7D12196CA30D9
:10124000D105B9F7AF9A5EC0903401F5AF98882305
:1012500091F080E480939C00EBE9F0E0808185FFD1
:10126000FDCFFFEF29EF80E0F15020408040E1F713
:1012700000C0000007C04AE050E063E170E082E394
:1012800091E0CADE0E944201AF9A3CC0AF98882329
:1012900089F010929C00EBE9F0E0808185FFFDCFA2
:1012A0009FEFE9EFF0E09150E040F040E1F700C03F
:1012B000000007C04AE050E06FE070E086E491E093
:1012C000ABDEAF9A1FC0E3E5F3E005E111E029E5ED
:1012D00033E0D8017CCFE7E0F1E0A1E5B3E012967E
:1012E0008C911297808313968C9113978183149617
:1012F0008C911497828315968C9183838F01C6E01D
:10130000D0E097CFDF91CF911F910F910895D79A99
:101310008F9AA79A1698DF9A979AAF9A1E988EB5C9
:101320008D608EBD80EB96E39BBD8ABD87B78860DC
:1013300087BF80E090E071D181508E3FC8F005E119
:1013400011E0C0E0D0E0D8016D918D01CE016DD1EA
:101350002196C630D105B9F707E011E0F801619197
:101360008F01CE0162D12196CA30D105B9F718C0DC
:1013700005E111E0C0E0D0E0CE014FD1D8018D935E
:101380008D012196C630D105B9F707E011E0CE01F5
:1013900044D1F80181938F012196CA30D105B9F764
:1013A0000E94DE000E9442010E9466008AB78063AC
:1013B0008ABF89B7806489BF78940F2EFDE56F2EB0
:1013C000F1E07F2EF02D0F2EF5E6EF2EF3E0FF2E4D
:1013D000F02D0F2EFCE98F2E912CF02DCBE9D0E0D3
:1013E0000F2EF0EBAF2EF6E3BF2EF02D0AE910E042
:1013F0000F2EF0EFCF2EFAE0DF2EF02D7BC081E52F
:1014000093E00E94BB0190935C0180935B019093F9
:101410005A018093590181E593E04CDD8F3409F046
:1014200040C060915B0170915C0181E593E026DB37
:1014300090935C0180935B01892BC1F0E1E5F3E0BF
:1014400020E030E08191D4018C93888185FFFDCF2D
:101450002F5F3F4F80915B0190915C012817390706
:1014600088F310925C0110925B011BC060915901DE
:1014700070915A0181E593E071DD90935C01809356
:101480005B01099750F0E1E5F3E0D30181918D9381
:10149000EE15FF05D9F780E075DE10925C01109221
:1014A0005B0180914F05909156019817F9F08823C0
:1014B00079F0DBBCCABC109258011092570181E050
:1014C0000E947200F80180818068808397980EC026
:1014D000BBBCAABC109258011092570181E00E9437
:1014E0007200D8018C918F778C93979A80914F05D9
:1014F0008093560132D88823E9F381CF1F920F924F
:101500000FB60F9211240BB60F922F933F934F9368
:101510005F936F937F938F939F93AF93BF93CF937B
:10152000DF93EF93FF93F894AF98109258011092C5
:1015300057010E9B17C0EBE9F0E0CCE9D0E08081C9
:101540008823ECF780915701909158012881DC01A4
:10155000A35ABE4F2C930196909358018093570144
:101560000E99EDCF81E00EDE1092580110925701D6
:10157000AF9A7894FF91EF91DF91CF91BF91AF91A6
:101580009F918F917F916F915F914F913F912F919B
:101590000F900BBE0F900FBE0F901F9018951F92CB
:1015A0000F920FB60F9211240BB60F922F933F9309
:1015B0008F939F93EF93FF9387B7877F87BF809128
:1015C00057019091580130919B00232F221F222711
:1015D000221F99F021E0843F31E0930708F020E0DA
:1015E000222359F020919C00FC01E35AFE4F2083F6
:1015F0000196909358018093570187B7886087BF01
:10160000FF91EF919F918F913F912F910F900BBE82
:101610000F900FBE0F901F901895E199FECF9FBBC2
:101620008EBBE09A99278DB30895262FE199FECFBE
:101630009FBB8EBB2DBB0FB6F894E29AE19A0FBE0A
:0816400001960895F894FFCF14
:10164800AA300000640064C0A8001EC0A800961557
:10165800CC20E2EFFE086266D73BAF4368616E6755
:101668006564204D4143004368616E6765642049A5
:1016780050004D6F64756C652069732072657374D2
:10168800617274656400556E6B6E6F776E20436F80
:061698006D6D616E64003F
:00000001FF
